{
  "_format": "hh-sol-artifact-1",
  "contractName": "Deposit",
  "sourceName": "contracts/Deposit.sol",
  "abi": [
    {
      "inputs": [],
      "name": "InvalidState",
      "type": "error"
    },
    {
      "inputs": [],
      "name": "NotAfterAgreedDate",
      "type": "error"
    },
    {
      "inputs": [],
      "name": "NotOnAgreedDate",
      "type": "error"
    },
    {
      "inputs": [],
      "name": "OnlyBuyer",
      "type": "error"
    },
    {
      "inputs": [],
      "name": "OnlySeller",
      "type": "error"
    },
    {
      "anonymous": false,
      "inputs": [],
      "name": "ClaimComplete",
      "type": "event"
    },
    {
      "anonymous": false,
      "inputs": [],
      "name": "ContestItem",
      "type": "event"
    },
    {
      "anonymous": false,
      "inputs": [
        {
          "indexed": false,
          "internalType": "uint8",
          "name": "version",
          "type": "uint8"
        }
      ],
      "name": "Initialized",
      "type": "event"
    },
    {
      "inputs": [],
      "name": "agreedDate",
      "outputs": [
        {
          "internalType": "uint256",
          "name": "",
          "type": "uint256"
        }
      ],
      "stateMutability": "view",
      "type": "function"
    },
    {
      "inputs": [],
      "name": "buyer",
      "outputs": [
        {
          "internalType": "address payable",
          "name": "",
          "type": "address"
        }
      ],
      "stateMutability": "view",
      "type": "function"
    },
    {
      "inputs": [],
      "name": "claimFunds",
      "outputs": [],
      "stateMutability": "nonpayable",
      "type": "function"
    },
    {
      "inputs": [],
      "name": "confirmDeposit",
      "outputs": [],
      "stateMutability": "payable",
      "type": "function"
    },
    {
      "inputs": [],
      "name": "contestItem",
      "outputs": [],
      "stateMutability": "nonpayable",
      "type": "function"
    },
    {
      "inputs": [],
      "name": "depositValue",
      "outputs": [
        {
          "internalType": "uint256",
          "name": "",
          "type": "uint256"
        }
      ],
      "stateMutability": "view",
      "type": "function"
    },
    {
      "inputs": [
        {
          "internalType": "uint256",
          "name": "_depositValue",
          "type": "uint256"
        },
        {
          "internalType": "uint256",
          "name": "_agreedDate",
          "type": "uint256"
        },
        {
          "internalType": "address",
          "name": "_token",
          "type": "address"
        }
      ],
      "name": "initialize",
      "outputs": [],
      "stateMutability": "nonpayable",
      "type": "function"
    },
    {
      "inputs": [],
      "name": "seller",
      "outputs": [
        {
          "internalType": "address payable",
          "name": "",
          "type": "address"
        }
      ],
      "stateMutability": "view",
      "type": "function"
    },
    {
      "inputs": [],
      "name": "state",
      "outputs": [
        {
          "internalType": "enum Deposit.State",
          "name": "",
          "type": "uint8"
        }
      ],
      "stateMutability": "view",
      "type": "function"
    }
  ],
  "bytecode": "0x608060405234801561001057600080fd5b50610e8a806100206000396000f3fe6080604052600436106100865760003560e01c8063a6ab36f211610059578063a6ab36f214610102578063ac3077731461012b578063b075222614610142578063b7bbd5671461016d578063c19d93fb1461019857610086565b806308551a531461008b57806325b00885146100b65780637150d8ae146100c05780637ea16114146100eb575b600080fd5b34801561009757600080fd5b506100a06101c3565b6040516100ad9190610a78565b60405180910390f35b6100be6101e9565b005b3480156100cc57600080fd5b506100d561037a565b6040516100e29190610a78565b60405180910390f35b3480156100f757600080fd5b506101006103a0565b005b34801561010e57600080fd5b5061012960048036038101906101249190610b0c565b6105c3565b005b34801561013757600080fd5b506101406106e2565b005b34801561014e57600080fd5b50610157610905565b6040516101649190610b6e565b60405180910390f35b34801561017957600080fd5b5061018261090b565b60405161018f9190610b6e565b60405180910390f35b3480156101a457600080fd5b506101ad610911565b6040516101ba9190610c00565b60405180910390f35b600260009054906101000a900473ffffffffffffffffffffffffffffffffffffffff1681565b60008060028111156101fe576101fd610b89565b5b600560009054906101000a900460ff1660028111156102205761021f610b89565b5b14610257576040517fbaf3f0f700000000000000000000000000000000000000000000000000000000815260040160405180910390fd5b33600360006101000a81548173ffffffffffffffffffffffffffffffffffffffff021916908373ffffffffffffffffffffffffffffffffffffffff1602179055506001600560006101000a81548160ff021916908360028111156102be576102bd610b89565b5b0217905550600060029054906101000a900473ffffffffffffffffffffffffffffffffffffffff1673ffffffffffffffffffffffffffffffffffffffff166323b872dd33306001546040518463ffffffff1660e01b815260040161032493929190610c2a565b602060405180830381600087803b15801561033e57600080fd5b505af1158015610352573d6000803e3d6000fd5b505050506040513d601f19601f820116820180604052508101906103769190610c99565b5050565b600360009054906101000a900473ffffffffffffffffffffffffffffffffffffffff1681565b600360009054906101000a900473ffffffffffffffffffffffffffffffffffffffff1673ffffffffffffffffffffffffffffffffffffffff163373ffffffffffffffffffffffffffffffffffffffff1614610427576040517f86efbb5500000000000000000000000000000000000000000000000000000000815260040160405180910390fd5b600180600281111561043c5761043b610b89565b5b600560009054906101000a900460ff16600281111561045e5761045d610b89565b5b14610495576040517fbaf3f0f700000000000000000000000000000000000000000000000000000000815260040160405180910390fd5b6002600560006101000a81548160ff021916908360028111156104bb576104ba610b89565b5b0217905550600060029054906101000a900473ffffffffffffffffffffffffffffffffffffffff1673ffffffffffffffffffffffffffffffffffffffff1663a9059cbb600360009054906101000a900473ffffffffffffffffffffffffffffffffffffffff166001546040518363ffffffff1660e01b8152600401610541929190610d25565b602060405180830381600087803b15801561055b57600080fd5b505af115801561056f573d6000803e3d6000fd5b505050506040513d601f19601f820116820180604052508101906105939190610c99565b507f2875ad0d9453c79d907ce40c735616e662670b885d667f773a74359ddfad60de60405160405180910390a150565b60006105cf6001610924565b905080156105f3576001600060016101000a81548160ff0219169083151502179055505b33600260006101000a81548173ffffffffffffffffffffffffffffffffffffffff021916908373ffffffffffffffffffffffffffffffffffffffff160217905550836001819055508260048190555081600060026101000a81548173ffffffffffffffffffffffffffffffffffffffff021916908373ffffffffffffffffffffffffffffffffffffffff16021790555080156106dc5760008060016101000a81548160ff0219169083151502179055507f7f26b83ff96e1f2b6a682f133852f6798a09c465da95921460cefb384740249860016040516106d39190610d96565b60405180910390a15b50505050565b600260009054906101000a900473ffffffffffffffffffffffffffffffffffffffff1673ffffffffffffffffffffffffffffffffffffffff163373ffffffffffffffffffffffffffffffffffffffff1614610769576040517f85d1f72600000000000000000000000000000000000000000000000000000000815260040160405180910390fd5b600180600281111561077e5761077d610b89565b5b600560009054906101000a900460ff1660028111156107a05761079f610b89565b5b146107d7576040517fbaf3f0f700000000000000000000000000000000000000000000000000000000815260040160405180910390fd5b6002600560006101000a81548160ff021916908360028111156107fd576107fc610b89565b5b0217905550600060029054906101000a900473ffffffffffffffffffffffffffffffffffffffff1673ffffffffffffffffffffffffffffffffffffffff1663a9059cbb600260009054906101000a900473ffffffffffffffffffffffffffffffffffffffff166001546040518363ffffffff1660e01b8152600401610883929190610d25565b602060405180830381600087803b15801561089d57600080fd5b505af11580156108b1573d6000803e3d6000fd5b505050506040513d601f19601f820116820180604052508101906108d59190610c99565b507f3b65279f890a2677aa5207670d08094025c760d42290ed23d00413086cfb89d060405160405180910390a150565b60045481565b60015481565b600560009054906101000a900460ff1681565b60008060019054906101000a900460ff161561099b5760018260ff16148015610953575061095130610a14565b155b610992576040517f08c379a000000000000000000000000000000000000000000000000000000000815260040161098990610e34565b60405180910390fd5b60009050610a0f565b8160ff1660008054906101000a900460ff1660ff16106109f0576040517f08c379a00000000000000000000000000000000000000000000000000000000081526004016109e790610e34565b60405180910390fd5b816000806101000a81548160ff021916908360ff160217905550600190505b919050565b6000808273ffffffffffffffffffffffffffffffffffffffff163b119050919050565b600073ffffffffffffffffffffffffffffffffffffffff82169050919050565b6000610a6282610a37565b9050919050565b610a7281610a57565b82525050565b6000602082019050610a8d6000830184610a69565b92915050565b600080fd5b6000819050919050565b610aab81610a98565b8114610ab657600080fd5b50565b600081359050610ac881610aa2565b92915050565b6000610ad982610a37565b9050919050565b610ae981610ace565b8114610af457600080fd5b50565b600081359050610b0681610ae0565b92915050565b600080600060608486031215610b2557610b24610a93565b5b6000610b3386828701610ab9565b9350506020610b4486828701610ab9565b9250506040610b5586828701610af7565b9150509250925092565b610b6881610a98565b82525050565b6000602082019050610b836000830184610b5f565b92915050565b7f4e487b7100000000000000000000000000000000000000000000000000000000600052602160045260246000fd5b60038110610bc957610bc8610b89565b5b50565b6000819050610bda82610bb8565b919050565b6000610bea82610bcc565b9050919050565b610bfa81610bdf565b82525050565b6000602082019050610c156000830184610bf1565b92915050565b610c2481610ace565b82525050565b6000606082019050610c3f6000830186610c1b565b610c4c6020830185610c1b565b610c596040830184610b5f565b949350505050565b60008115159050919050565b610c7681610c61565b8114610c8157600080fd5b50565b600081519050610c9381610c6d565b92915050565b600060208284031215610caf57610cae610a93565b5b6000610cbd84828501610c84565b91505092915050565b6000819050919050565b6000610ceb610ce6610ce184610a37565b610cc6565b610a37565b9050919050565b6000610cfd82610cd0565b9050919050565b6000610d0f82610cf2565b9050919050565b610d1f81610d04565b82525050565b6000604082019050610d3a6000830185610d16565b610d476020830184610b5f565b9392505050565b6000819050919050565b600060ff82169050919050565b6000610d80610d7b610d7684610d4e565b610cc6565b610d58565b9050919050565b610d9081610d65565b82525050565b6000602082019050610dab6000830184610d87565b92915050565b600082825260208201905092915050565b7f496e697469616c697a61626c653a20636f6e747261637420697320616c72656160008201527f647920696e697469616c697a6564000000000000000000000000000000000000602082015250565b6000610e1e602e83610db1565b9150610e2982610dc2565b604082019050919050565b60006020820190508181036000830152610e4d81610e11565b905091905056fea26469706673582212206c5dc57b4115dfd6294ade63ae41f5e92d450e8dc8de8aee3d9c8c63c785666264736f6c63430008090033",
  "linkReferences": {},
  "deployedLinkReferences": {}
}