{
  "_format": "hh-sol-artifact-1",
  "contractName": "Deposit",
  "sourceName": "contracts/Deposit.sol",
  "abi": [
    {
      "inputs": [],
      "name": "InvalidState",
      "type": "error"
    },
    {
      "inputs": [],
      "name": "NotAfterAgreedDate",
      "type": "error"
    },
    {
      "inputs": [],
      "name": "NotOnAgreedDate",
      "type": "error"
    },
    {
      "inputs": [],
      "name": "OnlyBuyer",
      "type": "error"
    },
    {
      "inputs": [],
      "name": "OnlySeller",
      "type": "error"
    },
    {
      "anonymous": false,
      "inputs": [],
      "name": "ClaimComplete",
      "type": "event"
    },
    {
      "anonymous": false,
      "inputs": [],
      "name": "ContestComplete",
      "type": "event"
    },
    {
      "anonymous": false,
      "inputs": [
        {
          "indexed": false,
          "internalType": "uint8",
          "name": "version",
          "type": "uint8"
        }
      ],
      "name": "Initialized",
      "type": "event"
    },
    {
      "inputs": [],
      "name": "claimFunds",
      "outputs": [],
      "stateMutability": "nonpayable",
      "type": "function"
    },
    {
      "inputs": [],
      "name": "confirmDeposit",
      "outputs": [],
      "stateMutability": "payable",
      "type": "function"
    },
    {
      "inputs": [],
      "name": "contestItem",
      "outputs": [],
      "stateMutability": "nonpayable",
      "type": "function"
    },
    {
      "inputs": [],
      "name": "getAgreedDate",
      "outputs": [
        {
          "internalType": "uint256",
          "name": "",
          "type": "uint256"
        }
      ],
      "stateMutability": "view",
      "type": "function"
    },
    {
      "inputs": [],
      "name": "getBuyer",
      "outputs": [
        {
          "internalType": "address",
          "name": "",
          "type": "address"
        }
      ],
      "stateMutability": "view",
      "type": "function"
    },
    {
      "inputs": [],
      "name": "getCurrentState",
      "outputs": [
        {
          "internalType": "string",
          "name": "",
          "type": "string"
        }
      ],
      "stateMutability": "view",
      "type": "function"
    },
    {
      "inputs": [],
      "name": "getDeadline",
      "outputs": [
        {
          "internalType": "uint256",
          "name": "",
          "type": "uint256"
        }
      ],
      "stateMutability": "view",
      "type": "function"
    },
    {
      "inputs": [],
      "name": "getDepositValue",
      "outputs": [
        {
          "internalType": "uint256",
          "name": "",
          "type": "uint256"
        }
      ],
      "stateMutability": "view",
      "type": "function"
    },
    {
      "inputs": [],
      "name": "getSeller",
      "outputs": [
        {
          "internalType": "address",
          "name": "",
          "type": "address"
        }
      ],
      "stateMutability": "view",
      "type": "function"
    },
    {
      "inputs": [],
      "name": "getTokenAddress",
      "outputs": [
        {
          "internalType": "address",
          "name": "",
          "type": "address"
        }
      ],
      "stateMutability": "view",
      "type": "function"
    },
    {
      "inputs": [
        {
          "internalType": "uint256",
          "name": "_depositValue",
          "type": "uint256"
        },
        {
          "internalType": "uint256",
          "name": "_agreedDate",
          "type": "uint256"
        },
        {
          "internalType": "address",
          "name": "_token",
          "type": "address"
        },
        {
          "internalType": "address payable",
          "name": "_seller",
          "type": "address"
        }
      ],
      "name": "initialize",
      "outputs": [],
      "stateMutability": "nonpayable",
      "type": "function"
    },
    {
      "inputs": [],
      "name": "state",
      "outputs": [
        {
          "internalType": "enum Deposit.State",
          "name": "",
          "type": "uint8"
        }
      ],
      "stateMutability": "view",
      "type": "function"
    }
  ],
  "bytecode": "0x608060405234801561001057600080fd5b5061131c806100206000396000f3fe6080604052600436106100a75760003560e01c8063603daf9a11610064578063603daf9a1461018b5780637ea16114146101b657806398d07356146101cd578063ac307773146101f8578063c19d93fb1461020f578063dbd0e1b61461023a576100a7565b8063019e2729146100ac57806310fe9ae8146100d55780631cd8ead31461010057806325b008851461012b578063378aa701146101355780635f8d96de14610160575b600080fd5b3480156100b857600080fd5b506100d360048036038101906100ce9190610e40565b610265565b005b3480156100e157600080fd5b506100ea6103dd565b6040516100f79190610eb6565b60405180910390f35b34801561010c57600080fd5b50610115610407565b6040516101229190610ee0565b60405180910390f35b610133610411565b005b34801561014157600080fd5b5061014a6105a2565b6040516101579190610f94565b60405180910390f35b34801561016c57600080fd5b50610175610712565b6040516101829190610ee0565b60405180910390f35b34801561019757600080fd5b506101a061071c565b6040516101ad9190610eb6565b60405180910390f35b3480156101c257600080fd5b506101cb610746565b005b3480156101d957600080fd5b506101e26109b1565b6040516101ef9190610ee0565b60405180910390f35b34801561020457600080fd5b5061020d6109bb565b005b34801561021b57600080fd5b50610224610c19565b604051610231919061102d565b60405180910390f35b34801561024657600080fd5b5061024f610c2c565b60405161025c9190610eb6565b60405180910390f35b60006102716001610c56565b90508015610295576001600060016101000a81548160ff0219169083151502179055505b81600360006101000a81548173ffffffffffffffffffffffffffffffffffffffff021916908373ffffffffffffffffffffffffffffffffffffffff1602179055508460028190555083600581905550620151806005546102f59190611077565b60068190555082600060026101000a81548173ffffffffffffffffffffffffffffffffffffffff021916908373ffffffffffffffffffffffffffffffffffffffff16021790555082600160006101000a81548173ffffffffffffffffffffffffffffffffffffffff021916908373ffffffffffffffffffffffffffffffffffffffff16021790555080156103d65760008060016101000a81548160ff0219169083151502179055507f7f26b83ff96e1f2b6a682f133852f6798a09c465da95921460cefb384740249860016040516103cd919061111f565b60405180910390a15b5050505050565b6000600160009054906101000a900473ffffffffffffffffffffffffffffffffffffffff16905090565b6000600554905090565b600080600281111561042657610425610fb6565b5b600760009054906101000a900460ff16600281111561044857610447610fb6565b5b1461047f576040517fbaf3f0f700000000000000000000000000000000000000000000000000000000815260040160405180910390fd5b33600460006101000a81548173ffffffffffffffffffffffffffffffffffffffff021916908373ffffffffffffffffffffffffffffffffffffffff1602179055506001600760006101000a81548160ff021916908360028111156104e6576104e5610fb6565b5b0217905550600060029054906101000a900473ffffffffffffffffffffffffffffffffffffffff1673ffffffffffffffffffffffffffffffffffffffff166323b872dd33306002546040518463ffffffff1660e01b815260040161054c9392919061113a565b602060405180830381600087803b15801561056657600080fd5b505af115801561057a573d6000803e3d6000fd5b505050506040513d601f19601f8201168201806040525081019061059e91906111a9565b5050565b6060600060028111156105b8576105b7610fb6565b5b600760009054906101000a900460ff1660028111156105da576105d9610fb6565b5b141561061d576040518060400160405280600781526020017f4372656174656400000000000000000000000000000000000000000000000000815250905061070f565b6001600281111561063157610630610fb6565b5b600760009054906101000a900460ff16600281111561065357610652610fb6565b5b1415610696576040518060400160405280600681526020017f4c6f636b65640000000000000000000000000000000000000000000000000000815250905061070f565b6002808111156106a9576106a8610fb6565b5b600760009054906101000a900460ff1660028111156106cb576106ca610fb6565b5b141561070e576040518060400160405280600881526020017f496e616374697665000000000000000000000000000000000000000000000000815250905061070f565b5b90565b6000600654905090565b6000600460009054906101000a900473ffffffffffffffffffffffffffffffffffffffff16905090565b600460009054906101000a900473ffffffffffffffffffffffffffffffffffffffff1673ffffffffffffffffffffffffffffffffffffffff163373ffffffffffffffffffffffffffffffffffffffff16146107cd576040517f86efbb5500000000000000000000000000000000000000000000000000000000815260040160405180910390fd5b6005544210806107de575060065442115b15610815576040517f7a482d3300000000000000000000000000000000000000000000000000000000815260040160405180910390fd5b600180600281111561082a57610829610fb6565b5b600760009054906101000a900460ff16600281111561084c5761084b610fb6565b5b14610883576040517fbaf3f0f700000000000000000000000000000000000000000000000000000000815260040160405180910390fd5b6002600760006101000a81548160ff021916908360028111156108a9576108a8610fb6565b5b0217905550600060029054906101000a900473ffffffffffffffffffffffffffffffffffffffff1673ffffffffffffffffffffffffffffffffffffffff1663a9059cbb600460009054906101000a900473ffffffffffffffffffffffffffffffffffffffff166002546040518363ffffffff1660e01b815260040161092f92919061122b565b602060405180830381600087803b15801561094957600080fd5b505af115801561095d573d6000803e3d6000fd5b505050506040513d601f19601f8201168201806040525081019061098191906111a9565b507fa4b7b666dab3c77fddbb337343e72877f009384ce9a435d64af46d26a196537760405160405180910390a150565b6000600254905090565b600360009054906101000a900473ffffffffffffffffffffffffffffffffffffffff1673ffffffffffffffffffffffffffffffffffffffff163373ffffffffffffffffffffffffffffffffffffffff1614610a42576040517f85d1f72600000000000000000000000000000000000000000000000000000000815260040160405180910390fd5b6006544211610a7d576040517f778289c100000000000000000000000000000000000000000000000000000000815260040160405180910390fd5b6001806002811115610a9257610a91610fb6565b5b600760009054906101000a900460ff166002811115610ab457610ab3610fb6565b5b14610aeb576040517fbaf3f0f700000000000000000000000000000000000000000000000000000000815260040160405180910390fd5b6002600760006101000a81548160ff02191690836002811115610b1157610b10610fb6565b5b0217905550600060029054906101000a900473ffffffffffffffffffffffffffffffffffffffff1673ffffffffffffffffffffffffffffffffffffffff1663a9059cbb600360009054906101000a900473ffffffffffffffffffffffffffffffffffffffff166002546040518363ffffffff1660e01b8152600401610b9792919061122b565b602060405180830381600087803b158015610bb157600080fd5b505af1158015610bc5573d6000803e3d6000fd5b505050506040513d601f19601f82011682018060405250810190610be991906111a9565b507f3b65279f890a2677aa5207670d08094025c760d42290ed23d00413086cfb89d060405160405180910390a150565b600760009054906101000a900460ff1681565b6000600360009054906101000a900473ffffffffffffffffffffffffffffffffffffffff16905090565b60008060019054906101000a900460ff1615610ccd5760018260ff16148015610c855750610c8330610d46565b155b610cc4576040517f08c379a0000000000000000000000000000000000000000000000000000000008152600401610cbb906112c6565b60405180910390fd5b60009050610d41565b8160ff1660008054906101000a900460ff1660ff1610610d22576040517f08c379a0000000000000000000000000000000000000000000000000000000008152600401610d19906112c6565b60405180910390fd5b816000806101000a81548160ff021916908360ff160217905550600190505b919050565b6000808273ffffffffffffffffffffffffffffffffffffffff163b119050919050565b600080fd5b6000819050919050565b610d8181610d6e565b8114610d8c57600080fd5b50565b600081359050610d9e81610d78565b92915050565b600073ffffffffffffffffffffffffffffffffffffffff82169050919050565b6000610dcf82610da4565b9050919050565b610ddf81610dc4565b8114610dea57600080fd5b50565b600081359050610dfc81610dd6565b92915050565b6000610e0d82610da4565b9050919050565b610e1d81610e02565b8114610e2857600080fd5b50565b600081359050610e3a81610e14565b92915050565b60008060008060808587031215610e5a57610e59610d69565b5b6000610e6887828801610d8f565b9450506020610e7987828801610d8f565b9350506040610e8a87828801610ded565b9250506060610e9b87828801610e2b565b91505092959194509250565b610eb081610dc4565b82525050565b6000602082019050610ecb6000830184610ea7565b92915050565b610eda81610d6e565b82525050565b6000602082019050610ef56000830184610ed1565b92915050565b600081519050919050565b600082825260208201905092915050565b60005b83811015610f35578082015181840152602081019050610f1a565b83811115610f44576000848401525b50505050565b6000601f19601f8301169050919050565b6000610f6682610efb565b610f708185610f06565b9350610f80818560208601610f17565b610f8981610f4a565b840191505092915050565b60006020820190508181036000830152610fae8184610f5b565b905092915050565b7f4e487b7100000000000000000000000000000000000000000000000000000000600052602160045260246000fd5b60038110610ff657610ff5610fb6565b5b50565b600081905061100782610fe5565b919050565b600061101782610ff9565b9050919050565b6110278161100c565b82525050565b6000602082019050611042600083018461101e565b92915050565b7f4e487b7100000000000000000000000000000000000000000000000000000000600052601160045260246000fd5b600061108282610d6e565b915061108d83610d6e565b9250827fffffffffffffffffffffffffffffffffffffffffffffffffffffffffffffffff038211156110c2576110c1611048565b5b828201905092915050565b6000819050919050565b600060ff82169050919050565b6000819050919050565b60006111096111046110ff846110cd565b6110e4565b6110d7565b9050919050565b611119816110ee565b82525050565b60006020820190506111346000830184611110565b92915050565b600060608201905061114f6000830186610ea7565b61115c6020830185610ea7565b6111696040830184610ed1565b949350505050565b60008115159050919050565b61118681611171565b811461119157600080fd5b50565b6000815190506111a38161117d565b92915050565b6000602082840312156111bf576111be610d69565b5b60006111cd84828501611194565b91505092915050565b60006111f16111ec6111e784610da4565b6110e4565b610da4565b9050919050565b6000611203826111d6565b9050919050565b6000611215826111f8565b9050919050565b6112258161120a565b82525050565b6000604082019050611240600083018561121c565b61124d6020830184610ed1565b9392505050565b7f496e697469616c697a61626c653a20636f6e747261637420697320616c72656160008201527f647920696e697469616c697a6564000000000000000000000000000000000000602082015250565b60006112b0602e83610f06565b91506112bb82611254565b604082019050919050565b600060208201905081810360008301526112df816112a3565b905091905056fea2646970667358221220fca57e056deab0bbe349e4ff31cdb01415511a454c64d50fc49cc32ff5c8424564736f6c63430008090033",
  "linkReferences": {},
  "deployedLinkReferences": {}
}