{
  "_format": "hh-sol-artifact-1",
  "contractName": "Deposit",
  "sourceName": "contracts/Deposit.sol",
  "abi": [
    {
      "inputs": [],
      "name": "InvalidState",
      "type": "error"
    },
    {
      "inputs": [],
      "name": "NotAfterAgreedDate",
      "type": "error"
    },
    {
      "inputs": [],
      "name": "NotOnAgreedDate",
      "type": "error"
    },
    {
      "inputs": [],
      "name": "OnlyBuyer",
      "type": "error"
    },
    {
      "inputs": [],
      "name": "OnlySeller",
      "type": "error"
    },
    {
      "anonymous": false,
      "inputs": [],
      "name": "ClaimComplete",
      "type": "event"
    },
    {
      "anonymous": false,
      "inputs": [],
      "name": "ContestComplete",
      "type": "event"
    },
    {
      "anonymous": false,
      "inputs": [
        {
          "indexed": false,
          "internalType": "uint8",
          "name": "version",
          "type": "uint8"
        }
      ],
      "name": "Initialized",
      "type": "event"
    },
    {
      "inputs": [],
      "name": "claimFunds",
      "outputs": [],
      "stateMutability": "nonpayable",
      "type": "function"
    },
    {
      "inputs": [],
      "name": "confirmDeposit",
      "outputs": [],
      "stateMutability": "payable",
      "type": "function"
    },
    {
      "inputs": [],
      "name": "contestItem",
      "outputs": [],
      "stateMutability": "nonpayable",
      "type": "function"
    },
    {
      "inputs": [],
      "name": "getAgreedDate",
      "outputs": [
        {
          "internalType": "uint256",
          "name": "",
          "type": "uint256"
        }
      ],
      "stateMutability": "view",
      "type": "function"
    },
    {
      "inputs": [],
      "name": "getBuyer",
      "outputs": [
        {
          "internalType": "address",
          "name": "",
          "type": "address"
        }
      ],
      "stateMutability": "view",
      "type": "function"
    },
    {
      "inputs": [],
      "name": "getCurrentDate",
      "outputs": [
        {
          "internalType": "uint256",
          "name": "",
          "type": "uint256"
        }
      ],
      "stateMutability": "view",
      "type": "function"
    },
    {
      "inputs": [],
      "name": "getCurrentState",
      "outputs": [
        {
          "internalType": "string",
          "name": "",
          "type": "string"
        }
      ],
      "stateMutability": "view",
      "type": "function"
    },
    {
      "inputs": [],
      "name": "getDeadline",
      "outputs": [
        {
          "internalType": "uint256",
          "name": "",
          "type": "uint256"
        }
      ],
      "stateMutability": "view",
      "type": "function"
    },
    {
      "inputs": [],
      "name": "getDepositValue",
      "outputs": [
        {
          "internalType": "uint256",
          "name": "",
          "type": "uint256"
        }
      ],
      "stateMutability": "view",
      "type": "function"
    },
    {
      "inputs": [],
      "name": "getSeller",
      "outputs": [
        {
          "internalType": "address",
          "name": "",
          "type": "address"
        }
      ],
      "stateMutability": "view",
      "type": "function"
    },
    {
      "inputs": [
        {
          "internalType": "uint256",
          "name": "_depositValue",
          "type": "uint256"
        },
        {
          "internalType": "uint256",
          "name": "_agreedDate",
          "type": "uint256"
        },
        {
          "internalType": "address",
          "name": "_token",
          "type": "address"
        },
        {
          "internalType": "address payable",
          "name": "_seller",
          "type": "address"
        }
      ],
      "name": "initialize",
      "outputs": [],
      "stateMutability": "nonpayable",
      "type": "function"
    },
    {
      "inputs": [],
      "name": "state",
      "outputs": [
        {
          "internalType": "enum Deposit.State",
          "name": "",
          "type": "uint8"
        }
      ],
      "stateMutability": "view",
      "type": "function"
    }
  ],
  "bytecode": "0x608060405234801561001057600080fd5b50611272806100206000396000f3fe6080604052600436106100a75760003560e01c80637ea16114116100645780637ea161141461018b5780639254d772146101a257806398d07356146101cd578063ac307773146101f8578063c19d93fb1461020f578063dbd0e1b61461023a576100a7565b8063019e2729146100ac5780631cd8ead3146100d557806325b0088514610100578063378aa7011461010a5780635f8d96de14610135578063603daf9a14610160575b600080fd5b3480156100b857600080fd5b506100d360048036038101906100ce9190610d96565b610265565b005b3480156100e157600080fd5b506100ea61039d565b6040516100f79190610e0c565b60405180910390f35b6101086103a7565b005b34801561011657600080fd5b5061011f610538565b60405161012c9190610ec0565b60405180910390f35b34801561014157600080fd5b5061014a6106a8565b6040516101579190610e0c565b60405180910390f35b34801561016c57600080fd5b506101756106b2565b6040516101829190610ef1565b60405180910390f35b34801561019757600080fd5b506101a06106dc565b005b3480156101ae57600080fd5b506101b76108ff565b6040516101c49190610e0c565b60405180910390f35b3480156101d957600080fd5b506101e2610907565b6040516101ef9190610e0c565b60405180910390f35b34801561020457600080fd5b5061020d610911565b005b34801561021b57600080fd5b50610224610b6f565b6040516102319190610f83565b60405180910390f35b34801561024657600080fd5b5061024f610b82565b60405161025c9190610ef1565b60405180910390f35b60006102716001610bac565b90508015610295576001600060016101000a81548160ff0219169083151502179055505b81600260006101000a81548173ffffffffffffffffffffffffffffffffffffffff021916908373ffffffffffffffffffffffffffffffffffffffff1602179055508460018190555083600481905550630527ad806004546102f69190610fcd565b60058190555082600060026101000a81548173ffffffffffffffffffffffffffffffffffffffff021916908373ffffffffffffffffffffffffffffffffffffffff16021790555080156103965760008060016101000a81548160ff0219169083151502179055507f7f26b83ff96e1f2b6a682f133852f6798a09c465da95921460cefb3847402498600160405161038d9190611075565b60405180910390a15b5050505050565b6000600454905090565b60008060028111156103bc576103bb610f0c565b5b600660009054906101000a900460ff1660028111156103de576103dd610f0c565b5b14610415576040517fbaf3f0f700000000000000000000000000000000000000000000000000000000815260040160405180910390fd5b33600360006101000a81548173ffffffffffffffffffffffffffffffffffffffff021916908373ffffffffffffffffffffffffffffffffffffffff1602179055506001600660006101000a81548160ff0219169083600281111561047c5761047b610f0c565b5b0217905550600060029054906101000a900473ffffffffffffffffffffffffffffffffffffffff1673ffffffffffffffffffffffffffffffffffffffff166323b872dd33306001546040518463ffffffff1660e01b81526004016104e293929190611090565b602060405180830381600087803b1580156104fc57600080fd5b505af1158015610510573d6000803e3d6000fd5b505050506040513d601f19601f8201168201806040525081019061053491906110ff565b5050565b60606000600281111561054e5761054d610f0c565b5b600660009054906101000a900460ff1660028111156105705761056f610f0c565b5b14156105b3576040518060400160405280600781526020017f437265617465640000000000000000000000000000000000000000000000000081525090506106a5565b600160028111156105c7576105c6610f0c565b5b600660009054906101000a900460ff1660028111156105e9576105e8610f0c565b5b141561062c576040518060400160405280600681526020017f4c6f636b6564000000000000000000000000000000000000000000000000000081525090506106a5565b60028081111561063f5761063e610f0c565b5b600660009054906101000a900460ff16600281111561066157610660610f0c565b5b14156106a4576040518060400160405280600881526020017f496e61637469766500000000000000000000000000000000000000000000000081525090506106a5565b5b90565b6000600554905090565b6000600360009054906101000a900473ffffffffffffffffffffffffffffffffffffffff16905090565b600360009054906101000a900473ffffffffffffffffffffffffffffffffffffffff1673ffffffffffffffffffffffffffffffffffffffff163373ffffffffffffffffffffffffffffffffffffffff1614610763576040517f86efbb5500000000000000000000000000000000000000000000000000000000815260040160405180910390fd5b600180600281111561077857610777610f0c565b5b600660009054906101000a900460ff16600281111561079a57610799610f0c565b5b146107d1576040517fbaf3f0f700000000000000000000000000000000000000000000000000000000815260040160405180910390fd5b6002600660006101000a81548160ff021916908360028111156107f7576107f6610f0c565b5b0217905550600060029054906101000a900473ffffffffffffffffffffffffffffffffffffffff1673ffffffffffffffffffffffffffffffffffffffff1663a9059cbb600360009054906101000a900473ffffffffffffffffffffffffffffffffffffffff166001546040518363ffffffff1660e01b815260040161087d929190611181565b602060405180830381600087803b15801561089757600080fd5b505af11580156108ab573d6000803e3d6000fd5b505050506040513d601f19601f820116820180604052508101906108cf91906110ff565b507fa4b7b666dab3c77fddbb337343e72877f009384ce9a435d64af46d26a196537760405160405180910390a150565b600042905090565b6000600154905090565b600260009054906101000a900473ffffffffffffffffffffffffffffffffffffffff1673ffffffffffffffffffffffffffffffffffffffff163373ffffffffffffffffffffffffffffffffffffffff1614610998576040517f85d1f72600000000000000000000000000000000000000000000000000000000815260040160405180910390fd5b60055442116109d3576040517f778289c100000000000000000000000000000000000000000000000000000000815260040160405180910390fd5b60018060028111156109e8576109e7610f0c565b5b600660009054906101000a900460ff166002811115610a0a57610a09610f0c565b5b14610a41576040517fbaf3f0f700000000000000000000000000000000000000000000000000000000815260040160405180910390fd5b6002600660006101000a81548160ff02191690836002811115610a6757610a66610f0c565b5b0217905550600060029054906101000a900473ffffffffffffffffffffffffffffffffffffffff1673ffffffffffffffffffffffffffffffffffffffff1663a9059cbb600260009054906101000a900473ffffffffffffffffffffffffffffffffffffffff166001546040518363ffffffff1660e01b8152600401610aed929190611181565b602060405180830381600087803b158015610b0757600080fd5b505af1158015610b1b573d6000803e3d6000fd5b505050506040513d601f19601f82011682018060405250810190610b3f91906110ff565b507f3b65279f890a2677aa5207670d08094025c760d42290ed23d00413086cfb89d060405160405180910390a150565b600660009054906101000a900460ff1681565b6000600260009054906101000a900473ffffffffffffffffffffffffffffffffffffffff16905090565b60008060019054906101000a900460ff1615610c235760018260ff16148015610bdb5750610bd930610c9c565b155b610c1a576040517f08c379a0000000000000000000000000000000000000000000000000000000008152600401610c119061121c565b60405180910390fd5b60009050610c97565b8160ff1660008054906101000a900460ff1660ff1610610c78576040517f08c379a0000000000000000000000000000000000000000000000000000000008152600401610c6f9061121c565b60405180910390fd5b816000806101000a81548160ff021916908360ff160217905550600190505b919050565b6000808273ffffffffffffffffffffffffffffffffffffffff163b119050919050565b600080fd5b6000819050919050565b610cd781610cc4565b8114610ce257600080fd5b50565b600081359050610cf481610cce565b92915050565b600073ffffffffffffffffffffffffffffffffffffffff82169050919050565b6000610d2582610cfa565b9050919050565b610d3581610d1a565b8114610d4057600080fd5b50565b600081359050610d5281610d2c565b92915050565b6000610d6382610cfa565b9050919050565b610d7381610d58565b8114610d7e57600080fd5b50565b600081359050610d9081610d6a565b92915050565b60008060008060808587031215610db057610daf610cbf565b5b6000610dbe87828801610ce5565b9450506020610dcf87828801610ce5565b9350506040610de087828801610d43565b9250506060610df187828801610d81565b91505092959194509250565b610e0681610cc4565b82525050565b6000602082019050610e216000830184610dfd565b92915050565b600081519050919050565b600082825260208201905092915050565b60005b83811015610e61578082015181840152602081019050610e46565b83811115610e70576000848401525b50505050565b6000601f19601f8301169050919050565b6000610e9282610e27565b610e9c8185610e32565b9350610eac818560208601610e43565b610eb581610e76565b840191505092915050565b60006020820190508181036000830152610eda8184610e87565b905092915050565b610eeb81610d1a565b82525050565b6000602082019050610f066000830184610ee2565b92915050565b7f4e487b7100000000000000000000000000000000000000000000000000000000600052602160045260246000fd5b60038110610f4c57610f4b610f0c565b5b50565b6000819050610f5d82610f3b565b919050565b6000610f6d82610f4f565b9050919050565b610f7d81610f62565b82525050565b6000602082019050610f986000830184610f74565b92915050565b7f4e487b7100000000000000000000000000000000000000000000000000000000600052601160045260246000fd5b6000610fd882610cc4565b9150610fe383610cc4565b9250827fffffffffffffffffffffffffffffffffffffffffffffffffffffffffffffffff0382111561101857611017610f9e565b5b828201905092915050565b6000819050919050565b600060ff82169050919050565b6000819050919050565b600061105f61105a61105584611023565b61103a565b61102d565b9050919050565b61106f81611044565b82525050565b600060208201905061108a6000830184611066565b92915050565b60006060820190506110a56000830186610ee2565b6110b26020830185610ee2565b6110bf6040830184610dfd565b949350505050565b60008115159050919050565b6110dc816110c7565b81146110e757600080fd5b50565b6000815190506110f9816110d3565b92915050565b60006020828403121561111557611114610cbf565b5b6000611123848285016110ea565b91505092915050565b600061114761114261113d84610cfa565b61103a565b610cfa565b9050919050565b60006111598261112c565b9050919050565b600061116b8261114e565b9050919050565b61117b81611160565b82525050565b60006040820190506111966000830185611172565b6111a36020830184610dfd565b9392505050565b7f496e697469616c697a61626c653a20636f6e747261637420697320616c72656160008201527f647920696e697469616c697a6564000000000000000000000000000000000000602082015250565b6000611206602e83610e32565b9150611211826111aa565b604082019050919050565b60006020820190508181036000830152611235816111f9565b905091905056fea264697066735822122089126575aaeaffa7e5d94df412fa8c77c85efc5b1e19e78f22c2bfa6bba0003564736f6c63430008090033",
  "linkReferences": {},
  "deployedLinkReferences": {}
}