{
  "_format": "hh-sol-artifact-1",
  "contractName": "Deposit",
  "sourceName": "contracts/Deposit.sol",
  "abi": [
    {
      "inputs": [],
      "name": "InvalidState",
      "type": "error"
    },
    {
      "inputs": [],
      "name": "NotAfterAgreedDate",
      "type": "error"
    },
    {
      "inputs": [],
      "name": "NotOnAgreedDate",
      "type": "error"
    },
    {
      "inputs": [],
      "name": "OnlyBuyer",
      "type": "error"
    },
    {
      "inputs": [],
      "name": "OnlySeller",
      "type": "error"
    },
    {
      "anonymous": false,
      "inputs": [],
      "name": "ClaimComplete",
      "type": "event"
    },
    {
      "anonymous": false,
      "inputs": [],
      "name": "ContestComplete",
      "type": "event"
    },
    {
      "anonymous": false,
      "inputs": [
        {
          "indexed": false,
          "internalType": "uint8",
          "name": "version",
          "type": "uint8"
        }
      ],
      "name": "Initialized",
      "type": "event"
    },
    {
      "inputs": [],
      "name": "claimFunds",
      "outputs": [],
      "stateMutability": "nonpayable",
      "type": "function"
    },
    {
      "inputs": [],
      "name": "confirmDeposit",
      "outputs": [],
      "stateMutability": "payable",
      "type": "function"
    },
    {
      "inputs": [],
      "name": "contestItem",
      "outputs": [],
      "stateMutability": "nonpayable",
      "type": "function"
    },
    {
      "inputs": [],
      "name": "getAgreedDate",
      "outputs": [
        {
          "internalType": "uint256",
          "name": "",
          "type": "uint256"
        }
      ],
      "stateMutability": "view",
      "type": "function"
    },
    {
      "inputs": [],
      "name": "getBuyer",
      "outputs": [
        {
          "internalType": "address",
          "name": "",
          "type": "address"
        }
      ],
      "stateMutability": "view",
      "type": "function"
    },
    {
      "inputs": [],
      "name": "getCurrentDate",
      "outputs": [
        {
          "internalType": "uint256",
          "name": "",
          "type": "uint256"
        }
      ],
      "stateMutability": "view",
      "type": "function"
    },
    {
      "inputs": [],
      "name": "getCurrentState",
      "outputs": [
        {
          "internalType": "string",
          "name": "",
          "type": "string"
        }
      ],
      "stateMutability": "view",
      "type": "function"
    },
    {
      "inputs": [],
      "name": "getDeadline",
      "outputs": [
        {
          "internalType": "uint256",
          "name": "",
          "type": "uint256"
        }
      ],
      "stateMutability": "view",
      "type": "function"
    },
    {
      "inputs": [],
      "name": "getDepositValue",
      "outputs": [
        {
          "internalType": "uint256",
          "name": "",
          "type": "uint256"
        }
      ],
      "stateMutability": "view",
      "type": "function"
    },
    {
      "inputs": [],
      "name": "getSeller",
      "outputs": [
        {
          "internalType": "address",
          "name": "",
          "type": "address"
        }
      ],
      "stateMutability": "view",
      "type": "function"
    },
    {
      "inputs": [
        {
          "internalType": "uint256",
          "name": "_depositValue",
          "type": "uint256"
        },
        {
          "internalType": "uint256",
          "name": "_agreedDate",
          "type": "uint256"
        },
        {
          "internalType": "address",
          "name": "_token",
          "type": "address"
        },
        {
          "internalType": "address payable",
          "name": "_seller",
          "type": "address"
        }
      ],
      "name": "initialize",
      "outputs": [],
      "stateMutability": "nonpayable",
      "type": "function"
    },
    {
      "inputs": [],
      "name": "state",
      "outputs": [
        {
          "internalType": "enum Deposit.State",
          "name": "",
          "type": "uint8"
        }
      ],
      "stateMutability": "view",
      "type": "function"
    }
  ],
  "bytecode": "0x608060405234801561001057600080fd5b506112b9806100206000396000f3fe6080604052600436106100a75760003560e01c80637ea16114116100645780637ea161141461018b5780639254d772146101a257806398d07356146101cd578063ac307773146101f8578063c19d93fb1461020f578063dbd0e1b61461023a576100a7565b8063019e2729146100ac5780631cd8ead3146100d557806325b0088514610100578063378aa7011461010a5780635f8d96de14610135578063603daf9a14610160575b600080fd5b3480156100b857600080fd5b506100d360048036038101906100ce9190610ddd565b610265565b005b3480156100e157600080fd5b506100ea61039c565b6040516100f79190610e53565b60405180910390f35b6101086103a6565b005b34801561011657600080fd5b5061011f610537565b60405161012c9190610f07565b60405180910390f35b34801561014157600080fd5b5061014a6106a7565b6040516101579190610e53565b60405180910390f35b34801561016c57600080fd5b506101756106b1565b6040516101829190610f38565b60405180910390f35b34801561019757600080fd5b506101a06106db565b005b3480156101ae57600080fd5b506101b7610946565b6040516101c49190610e53565b60405180910390f35b3480156101d957600080fd5b506101e261094e565b6040516101ef9190610e53565b60405180910390f35b34801561020457600080fd5b5061020d610958565b005b34801561021b57600080fd5b50610224610bb6565b6040516102319190610fca565b60405180910390f35b34801561024657600080fd5b5061024f610bc9565b60405161025c9190610f38565b60405180910390f35b60006102716001610bf3565b90508015610295576001600060016101000a81548160ff0219169083151502179055505b81600260006101000a81548173ffffffffffffffffffffffffffffffffffffffff021916908373ffffffffffffffffffffffffffffffffffffffff1602179055508460018190555083600481905550620151806004546102f59190611014565b60058190555082600060026101000a81548173ffffffffffffffffffffffffffffffffffffffff021916908373ffffffffffffffffffffffffffffffffffffffff16021790555080156103955760008060016101000a81548160ff0219169083151502179055507f7f26b83ff96e1f2b6a682f133852f6798a09c465da95921460cefb3847402498600160405161038c91906110bc565b60405180910390a15b5050505050565b6000600454905090565b60008060028111156103bb576103ba610f53565b5b600660009054906101000a900460ff1660028111156103dd576103dc610f53565b5b14610414576040517fbaf3f0f700000000000000000000000000000000000000000000000000000000815260040160405180910390fd5b33600360006101000a81548173ffffffffffffffffffffffffffffffffffffffff021916908373ffffffffffffffffffffffffffffffffffffffff1602179055506001600660006101000a81548160ff0219169083600281111561047b5761047a610f53565b5b0217905550600060029054906101000a900473ffffffffffffffffffffffffffffffffffffffff1673ffffffffffffffffffffffffffffffffffffffff166323b872dd33306001546040518463ffffffff1660e01b81526004016104e1939291906110d7565b602060405180830381600087803b1580156104fb57600080fd5b505af115801561050f573d6000803e3d6000fd5b505050506040513d601f19601f820116820180604052508101906105339190611146565b5050565b60606000600281111561054d5761054c610f53565b5b600660009054906101000a900460ff16600281111561056f5761056e610f53565b5b14156105b2576040518060400160405280600781526020017f437265617465640000000000000000000000000000000000000000000000000081525090506106a4565b600160028111156105c6576105c5610f53565b5b600660009054906101000a900460ff1660028111156105e8576105e7610f53565b5b141561062b576040518060400160405280600681526020017f4c6f636b6564000000000000000000000000000000000000000000000000000081525090506106a4565b60028081111561063e5761063d610f53565b5b600660009054906101000a900460ff1660028111156106605761065f610f53565b5b14156106a3576040518060400160405280600881526020017f496e61637469766500000000000000000000000000000000000000000000000081525090506106a4565b5b90565b6000600554905090565b6000600360009054906101000a900473ffffffffffffffffffffffffffffffffffffffff16905090565b600360009054906101000a900473ffffffffffffffffffffffffffffffffffffffff1673ffffffffffffffffffffffffffffffffffffffff163373ffffffffffffffffffffffffffffffffffffffff1614610762576040517f86efbb5500000000000000000000000000000000000000000000000000000000815260040160405180910390fd5b600454421080610773575060055442115b156107aa576040517f7a482d3300000000000000000000000000000000000000000000000000000000815260040160405180910390fd5b60018060028111156107bf576107be610f53565b5b600660009054906101000a900460ff1660028111156107e1576107e0610f53565b5b14610818576040517fbaf3f0f700000000000000000000000000000000000000000000000000000000815260040160405180910390fd5b6002600660006101000a81548160ff0219169083600281111561083e5761083d610f53565b5b0217905550600060029054906101000a900473ffffffffffffffffffffffffffffffffffffffff1673ffffffffffffffffffffffffffffffffffffffff1663a9059cbb600360009054906101000a900473ffffffffffffffffffffffffffffffffffffffff166001546040518363ffffffff1660e01b81526004016108c49291906111c8565b602060405180830381600087803b1580156108de57600080fd5b505af11580156108f2573d6000803e3d6000fd5b505050506040513d601f19601f820116820180604052508101906109169190611146565b507fa4b7b666dab3c77fddbb337343e72877f009384ce9a435d64af46d26a196537760405160405180910390a150565b600042905090565b6000600154905090565b600260009054906101000a900473ffffffffffffffffffffffffffffffffffffffff1673ffffffffffffffffffffffffffffffffffffffff163373ffffffffffffffffffffffffffffffffffffffff16146109df576040517f85d1f72600000000000000000000000000000000000000000000000000000000815260040160405180910390fd5b6005544211610a1a576040517f778289c100000000000000000000000000000000000000000000000000000000815260040160405180910390fd5b6001806002811115610a2f57610a2e610f53565b5b600660009054906101000a900460ff166002811115610a5157610a50610f53565b5b14610a88576040517fbaf3f0f700000000000000000000000000000000000000000000000000000000815260040160405180910390fd5b6002600660006101000a81548160ff02191690836002811115610aae57610aad610f53565b5b0217905550600060029054906101000a900473ffffffffffffffffffffffffffffffffffffffff1673ffffffffffffffffffffffffffffffffffffffff1663a9059cbb600260009054906101000a900473ffffffffffffffffffffffffffffffffffffffff166001546040518363ffffffff1660e01b8152600401610b349291906111c8565b602060405180830381600087803b158015610b4e57600080fd5b505af1158015610b62573d6000803e3d6000fd5b505050506040513d601f19601f82011682018060405250810190610b869190611146565b507f3b65279f890a2677aa5207670d08094025c760d42290ed23d00413086cfb89d060405160405180910390a150565b600660009054906101000a900460ff1681565b6000600260009054906101000a900473ffffffffffffffffffffffffffffffffffffffff16905090565b60008060019054906101000a900460ff1615610c6a5760018260ff16148015610c225750610c2030610ce3565b155b610c61576040517f08c379a0000000000000000000000000000000000000000000000000000000008152600401610c5890611263565b60405180910390fd5b60009050610cde565b8160ff1660008054906101000a900460ff1660ff1610610cbf576040517f08c379a0000000000000000000000000000000000000000000000000000000008152600401610cb690611263565b60405180910390fd5b816000806101000a81548160ff021916908360ff160217905550600190505b919050565b6000808273ffffffffffffffffffffffffffffffffffffffff163b119050919050565b600080fd5b6000819050919050565b610d1e81610d0b565b8114610d2957600080fd5b50565b600081359050610d3b81610d15565b92915050565b600073ffffffffffffffffffffffffffffffffffffffff82169050919050565b6000610d6c82610d41565b9050919050565b610d7c81610d61565b8114610d8757600080fd5b50565b600081359050610d9981610d73565b92915050565b6000610daa82610d41565b9050919050565b610dba81610d9f565b8114610dc557600080fd5b50565b600081359050610dd781610db1565b92915050565b60008060008060808587031215610df757610df6610d06565b5b6000610e0587828801610d2c565b9450506020610e1687828801610d2c565b9350506040610e2787828801610d8a565b9250506060610e3887828801610dc8565b91505092959194509250565b610e4d81610d0b565b82525050565b6000602082019050610e686000830184610e44565b92915050565b600081519050919050565b600082825260208201905092915050565b60005b83811015610ea8578082015181840152602081019050610e8d565b83811115610eb7576000848401525b50505050565b6000601f19601f8301169050919050565b6000610ed982610e6e565b610ee38185610e79565b9350610ef3818560208601610e8a565b610efc81610ebd565b840191505092915050565b60006020820190508181036000830152610f218184610ece565b905092915050565b610f3281610d61565b82525050565b6000602082019050610f4d6000830184610f29565b92915050565b7f4e487b7100000000000000000000000000000000000000000000000000000000600052602160045260246000fd5b60038110610f9357610f92610f53565b5b50565b6000819050610fa482610f82565b919050565b6000610fb482610f96565b9050919050565b610fc481610fa9565b82525050565b6000602082019050610fdf6000830184610fbb565b92915050565b7f4e487b7100000000000000000000000000000000000000000000000000000000600052601160045260246000fd5b600061101f82610d0b565b915061102a83610d0b565b9250827fffffffffffffffffffffffffffffffffffffffffffffffffffffffffffffffff0382111561105f5761105e610fe5565b5b828201905092915050565b6000819050919050565b600060ff82169050919050565b6000819050919050565b60006110a66110a161109c8461106a565b611081565b611074565b9050919050565b6110b68161108b565b82525050565b60006020820190506110d160008301846110ad565b92915050565b60006060820190506110ec6000830186610f29565b6110f96020830185610f29565b6111066040830184610e44565b949350505050565b60008115159050919050565b6111238161110e565b811461112e57600080fd5b50565b6000815190506111408161111a565b92915050565b60006020828403121561115c5761115b610d06565b5b600061116a84828501611131565b91505092915050565b600061118e61118961118484610d41565b611081565b610d41565b9050919050565b60006111a082611173565b9050919050565b60006111b282611195565b9050919050565b6111c2816111a7565b82525050565b60006040820190506111dd60008301856111b9565b6111ea6020830184610e44565b9392505050565b7f496e697469616c697a61626c653a20636f6e747261637420697320616c72656160008201527f647920696e697469616c697a6564000000000000000000000000000000000000602082015250565b600061124d602e83610e79565b9150611258826111f1565b604082019050919050565b6000602082019050818103600083015261127c81611240565b905091905056fea2646970667358221220aeaa0bd010e62c93d8b2c4120ba58623333d3a7d34aa31de4af36209ae85b4f464736f6c63430008090033",
  "linkReferences": {},
  "deployedLinkReferences": {}
}