{
  "_format": "hh-sol-artifact-1",
  "contractName": "Deposit",
  "sourceName": "contracts/Deposit.sol",
  "abi": [
    {
      "inputs": [],
      "name": "IncorrectDeposit",
      "type": "error"
    },
    {
      "inputs": [],
      "name": "InvalidState",
      "type": "error"
    },
    {
      "inputs": [],
      "name": "NotAfterAgreedDate",
      "type": "error"
    },
    {
      "inputs": [],
      "name": "NotOnAgreedDate",
      "type": "error"
    },
    {
      "inputs": [],
      "name": "OnlyBuyer",
      "type": "error"
    },
    {
      "anonymous": false,
      "inputs": [
        {
          "indexed": false,
          "internalType": "uint8",
          "name": "version",
          "type": "uint8"
        }
      ],
      "name": "Initialized",
      "type": "event"
    },
    {
      "inputs": [],
      "name": "agreedDate",
      "outputs": [
        {
          "internalType": "uint256",
          "name": "",
          "type": "uint256"
        }
      ],
      "stateMutability": "view",
      "type": "function"
    },
    {
      "inputs": [],
      "name": "buyer",
      "outputs": [
        {
          "internalType": "address payable",
          "name": "",
          "type": "address"
        }
      ],
      "stateMutability": "view",
      "type": "function"
    },
    {
      "inputs": [],
      "name": "claimFunds",
      "outputs": [],
      "stateMutability": "nonpayable",
      "type": "function"
    },
    {
      "inputs": [],
      "name": "confirmDeposit",
      "outputs": [],
      "stateMutability": "payable",
      "type": "function"
    },
    {
      "inputs": [],
      "name": "contestItem",
      "outputs": [],
      "stateMutability": "nonpayable",
      "type": "function"
    },
    {
      "inputs": [],
      "name": "depositValue",
      "outputs": [
        {
          "internalType": "uint256",
          "name": "",
          "type": "uint256"
        }
      ],
      "stateMutability": "view",
      "type": "function"
    },
    {
      "inputs": [
        {
          "internalType": "uint256",
          "name": "_depositValue",
          "type": "uint256"
        },
        {
          "internalType": "uint256",
          "name": "_agreedDate",
          "type": "uint256"
        },
        {
          "internalType": "address",
          "name": "_token",
          "type": "address"
        }
      ],
      "name": "initialize",
      "outputs": [],
      "stateMutability": "nonpayable",
      "type": "function"
    },
    {
      "inputs": [],
      "name": "seller",
      "outputs": [
        {
          "internalType": "address payable",
          "name": "",
          "type": "address"
        }
      ],
      "stateMutability": "view",
      "type": "function"
    },
    {
      "inputs": [],
      "name": "state",
      "outputs": [
        {
          "internalType": "enum Deposit.State",
          "name": "",
          "type": "uint8"
        }
      ],
      "stateMutability": "view",
      "type": "function"
    }
  ],
  "bytecode": "0x608060405234801561001057600080fd5b50610dbd806100206000396000f3fe6080604052600436106100865760003560e01c8063a6ab36f211610059578063a6ab36f214610102578063ac3077731461012b578063b075222614610142578063b7bbd5671461016d578063c19d93fb1461019857610086565b806308551a531461008b57806325b00885146100b65780637150d8ae146100c05780637ea16114146100eb575b600080fd5b34801561009757600080fd5b506100a06101c3565b6040516100ad919061099d565b60405180910390f35b6100be6101e9565b005b3480156100cc57600080fd5b506100d561037a565b6040516100e2919061099d565b60405180910390f35b3480156100f757600080fd5b506101006103a0565b005b34801561010e57600080fd5b5061012960048036038101906101249190610a31565b610599565b005b34801561013757600080fd5b506101406106b8565b005b34801561014e57600080fd5b5061015761082a565b6040516101649190610a93565b60405180910390f35b34801561017957600080fd5b50610182610830565b60405161018f9190610a93565b60405180910390f35b3480156101a457600080fd5b506101ad610836565b6040516101ba9190610b25565b60405180910390f35b600260009054906101000a900473ffffffffffffffffffffffffffffffffffffffff1681565b60008060028111156101fe576101fd610aae565b5b600560009054906101000a900460ff1660028111156102205761021f610aae565b5b14610257576040517fbaf3f0f700000000000000000000000000000000000000000000000000000000815260040160405180910390fd5b33600360006101000a81548173ffffffffffffffffffffffffffffffffffffffff021916908373ffffffffffffffffffffffffffffffffffffffff1602179055506001600560006101000a81548160ff021916908360028111156102be576102bd610aae565b5b0217905550600060029054906101000a900473ffffffffffffffffffffffffffffffffffffffff1673ffffffffffffffffffffffffffffffffffffffff166323b872dd33306001546040518463ffffffff1660e01b815260040161032493929190610b4f565b602060405180830381600087803b15801561033e57600080fd5b505af1158015610352573d6000803e3d6000fd5b505050506040513d601f19601f820116820180604052508101906103769190610bbe565b5050565b600360009054906101000a900473ffffffffffffffffffffffffffffffffffffffff1681565b600360009054906101000a900473ffffffffffffffffffffffffffffffffffffffff1673ffffffffffffffffffffffffffffffffffffffff163373ffffffffffffffffffffffffffffffffffffffff1614610427576040517f86efbb5500000000000000000000000000000000000000000000000000000000815260040160405180910390fd5b600180600281111561043c5761043b610aae565b5b600560009054906101000a900460ff16600281111561045e5761045d610aae565b5b14610495576040517fbaf3f0f700000000000000000000000000000000000000000000000000000000815260040160405180910390fd5b6002600560006101000a81548160ff021916908360028111156104bb576104ba610aae565b5b0217905550600060029054906101000a900473ffffffffffffffffffffffffffffffffffffffff1673ffffffffffffffffffffffffffffffffffffffff166323b872dd30600360009054906101000a900473ffffffffffffffffffffffffffffffffffffffff166001546040518463ffffffff1660e01b815260040161054393929190610c4a565b602060405180830381600087803b15801561055d57600080fd5b505af1158015610571573d6000803e3d6000fd5b505050506040513d601f19601f820116820180604052508101906105959190610bbe565b5050565b60006105a56001610849565b905080156105c9576001600060016101000a81548160ff0219169083151502179055505b33600260006101000a81548173ffffffffffffffffffffffffffffffffffffffff021916908373ffffffffffffffffffffffffffffffffffffffff160217905550836001819055508260048190555081600060026101000a81548173ffffffffffffffffffffffffffffffffffffffff021916908373ffffffffffffffffffffffffffffffffffffffff16021790555080156106b25760008060016101000a81548160ff0219169083151502179055507f7f26b83ff96e1f2b6a682f133852f6798a09c465da95921460cefb384740249860016040516106a99190610cc9565b60405180910390a15b50505050565b60018060028111156106cd576106cc610aae565b5b600560009054906101000a900460ff1660028111156106ef576106ee610aae565b5b14610726576040517fbaf3f0f700000000000000000000000000000000000000000000000000000000815260040160405180910390fd5b6002600560006101000a81548160ff0219169083600281111561074c5761074b610aae565b5b0217905550600060029054906101000a900473ffffffffffffffffffffffffffffffffffffffff1673ffffffffffffffffffffffffffffffffffffffff166323b872dd30600260009054906101000a900473ffffffffffffffffffffffffffffffffffffffff166001546040518463ffffffff1660e01b81526004016107d493929190610c4a565b602060405180830381600087803b1580156107ee57600080fd5b505af1158015610802573d6000803e3d6000fd5b505050506040513d601f19601f820116820180604052508101906108269190610bbe565b5050565b60045481565b60015481565b600560009054906101000a900460ff1681565b60008060019054906101000a900460ff16156108c05760018260ff16148015610878575061087630610939565b155b6108b7576040517f08c379a00000000000000000000000000000000000000000000000000000000081526004016108ae90610d67565b60405180910390fd5b60009050610934565b8160ff1660008054906101000a900460ff1660ff1610610915576040517f08c379a000000000000000000000000000000000000000000000000000000000815260040161090c90610d67565b60405180910390fd5b816000806101000a81548160ff021916908360ff160217905550600190505b919050565b6000808273ffffffffffffffffffffffffffffffffffffffff163b119050919050565b600073ffffffffffffffffffffffffffffffffffffffff82169050919050565b60006109878261095c565b9050919050565b6109978161097c565b82525050565b60006020820190506109b2600083018461098e565b92915050565b600080fd5b6000819050919050565b6109d0816109bd565b81146109db57600080fd5b50565b6000813590506109ed816109c7565b92915050565b60006109fe8261095c565b9050919050565b610a0e816109f3565b8114610a1957600080fd5b50565b600081359050610a2b81610a05565b92915050565b600080600060608486031215610a4a57610a496109b8565b5b6000610a58868287016109de565b9350506020610a69868287016109de565b9250506040610a7a86828701610a1c565b9150509250925092565b610a8d816109bd565b82525050565b6000602082019050610aa86000830184610a84565b92915050565b7f4e487b7100000000000000000000000000000000000000000000000000000000600052602160045260246000fd5b60038110610aee57610aed610aae565b5b50565b6000819050610aff82610add565b919050565b6000610b0f82610af1565b9050919050565b610b1f81610b04565b82525050565b6000602082019050610b3a6000830184610b16565b92915050565b610b49816109f3565b82525050565b6000606082019050610b646000830186610b40565b610b716020830185610b40565b610b7e6040830184610a84565b949350505050565b60008115159050919050565b610b9b81610b86565b8114610ba657600080fd5b50565b600081519050610bb881610b92565b92915050565b600060208284031215610bd457610bd36109b8565b5b6000610be284828501610ba9565b91505092915050565b6000819050919050565b6000610c10610c0b610c068461095c565b610beb565b61095c565b9050919050565b6000610c2282610bf5565b9050919050565b6000610c3482610c17565b9050919050565b610c4481610c29565b82525050565b6000606082019050610c5f6000830186610b40565b610c6c6020830185610c3b565b610c796040830184610a84565b949350505050565b6000819050919050565b600060ff82169050919050565b6000610cb3610cae610ca984610c81565b610beb565b610c8b565b9050919050565b610cc381610c98565b82525050565b6000602082019050610cde6000830184610cba565b92915050565b600082825260208201905092915050565b7f496e697469616c697a61626c653a20636f6e747261637420697320616c72656160008201527f647920696e697469616c697a6564000000000000000000000000000000000000602082015250565b6000610d51602e83610ce4565b9150610d5c82610cf5565b604082019050919050565b60006020820190508181036000830152610d8081610d44565b905091905056fea26469706673582212209fbb50e81c0c82ab0764ce3ab6e0e88e6de944710a3c2d8882c5cc5015a2417864736f6c63430008090033",
  "linkReferences": {},
  "deployedLinkReferences": {}
}