{
  "_format": "hh-sol-artifact-1",
  "contractName": "DepositFactory",
  "sourceName": "contracts/DepositFactory.sol",
  "abi": [
    {
      "anonymous": false,
      "inputs": [
        {
          "indexed": false,
          "internalType": "address",
          "name": "newDepositAddress",
          "type": "address"
        }
      ],
      "name": "DepositCreated",
      "type": "event"
    },
    {
      "anonymous": false,
      "inputs": [
        {
          "indexed": true,
          "internalType": "address",
          "name": "previousOwner",
          "type": "address"
        },
        {
          "indexed": true,
          "internalType": "address",
          "name": "newOwner",
          "type": "address"
        }
      ],
      "name": "OwnershipTransferred",
      "type": "event"
    },
    {
      "inputs": [],
      "name": "contractAddress",
      "outputs": [
        {
          "internalType": "address",
          "name": "",
          "type": "address"
        }
      ],
      "stateMutability": "view",
      "type": "function"
    },
    {
      "inputs": [
        {
          "internalType": "uint256",
          "name": "_depositValue",
          "type": "uint256"
        },
        {
          "internalType": "uint256",
          "name": "_agreedDate",
          "type": "uint256"
        },
        {
          "internalType": "address",
          "name": "_token",
          "type": "address"
        },
        {
          "internalType": "address payable",
          "name": "_seller",
          "type": "address"
        }
      ],
      "name": "createDeposit",
      "outputs": [],
      "stateMutability": "nonpayable",
      "type": "function"
    },
    {
      "inputs": [],
      "name": "owner",
      "outputs": [
        {
          "internalType": "address",
          "name": "",
          "type": "address"
        }
      ],
      "stateMutability": "view",
      "type": "function"
    },
    {
      "inputs": [],
      "name": "renounceOwnership",
      "outputs": [],
      "stateMutability": "nonpayable",
      "type": "function"
    },
    {
      "inputs": [
        {
          "internalType": "address",
          "name": "_contractAddress",
          "type": "address"
        }
      ],
      "name": "setContractAddress",
      "outputs": [],
      "stateMutability": "nonpayable",
      "type": "function"
    },
    {
      "inputs": [
        {
          "internalType": "address",
          "name": "newOwner",
          "type": "address"
        }
      ],
      "name": "transferOwnership",
      "outputs": [],
      "stateMutability": "nonpayable",
      "type": "function"
    }
  ],
  "bytecode": "0x608060405234801561001057600080fd5b5061002d61002261003260201b60201c565b61003a60201b60201c565b6100fe565b600033905090565b60008060009054906101000a900473ffffffffffffffffffffffffffffffffffffffff169050816000806101000a81548173ffffffffffffffffffffffffffffffffffffffff021916908373ffffffffffffffffffffffffffffffffffffffff1602179055508173ffffffffffffffffffffffffffffffffffffffff168173ffffffffffffffffffffffffffffffffffffffff167f8be0079c531659141344cd1fd0a4f28419497f9722a3daafe3b4186f6b6457e060405160405180910390a35050565b6109b88061010d6000396000f3fe608060405234801561001057600080fd5b50600436106100625760003560e01c8063477bddaa14610067578063715018a6146100835780638da5cb5b1461008d578063be375b7d146100ab578063f2fde38b146100c7578063f6b4dfb4146100e3575b600080fd5b610081600480360381019061007c9190610672565b610101565b005b61008b6101c1565b005b610095610249565b6040516100a291906106ae565b60405180910390f35b6100c560048036038101906100c0919061073d565b610272565b005b6100e160048036038101906100dc9190610672565b610350565b005b6100eb610448565b6040516100f891906106ae565b60405180910390f35b61010961046e565b73ffffffffffffffffffffffffffffffffffffffff16610127610249565b73ffffffffffffffffffffffffffffffffffffffff161461017d576040517f08c379a000000000000000000000000000000000000000000000000000000000815260040161017490610801565b60405180910390fd5b80600160006101000a81548173ffffffffffffffffffffffffffffffffffffffff021916908373ffffffffffffffffffffffffffffffffffffffff16021790555050565b6101c961046e565b73ffffffffffffffffffffffffffffffffffffffff166101e7610249565b73ffffffffffffffffffffffffffffffffffffffff161461023d576040517f08c379a000000000000000000000000000000000000000000000000000000000815260040161023490610801565b60405180910390fd5b6102476000610476565b565b60008060009054906101000a900473ffffffffffffffffffffffffffffffffffffffff16905090565b600061029f600160009054906101000a900473ffffffffffffffffffffffffffffffffffffffff1661053a565b90508073ffffffffffffffffffffffffffffffffffffffff1663019e2729868686866040518563ffffffff1660e01b81526004016102e0949392919061083f565b600060405180830381600087803b1580156102fa57600080fd5b505af115801561030e573d6000803e3d6000fd5b505050507ff62db4d5e4c2d5a957e5105e48d43f2c6db77666090ec34af81656a505cdb39f8160405161034191906106ae565b60405180910390a15050505050565b61035861046e565b73ffffffffffffffffffffffffffffffffffffffff16610376610249565b73ffffffffffffffffffffffffffffffffffffffff16146103cc576040517f08c379a00000000000000000000000000000000000000000000000000000000081526004016103c390610801565b60405180910390fd5b600073ffffffffffffffffffffffffffffffffffffffff168173ffffffffffffffffffffffffffffffffffffffff16141561043c576040517f08c379a0000000000000000000000000000000000000000000000000000000008152600401610433906108f6565b60405180910390fd5b61044581610476565b50565b600160009054906101000a900473ffffffffffffffffffffffffffffffffffffffff1681565b600033905090565b60008060009054906101000a900473ffffffffffffffffffffffffffffffffffffffff169050816000806101000a81548173ffffffffffffffffffffffffffffffffffffffff021916908373ffffffffffffffffffffffffffffffffffffffff1602179055508173ffffffffffffffffffffffffffffffffffffffff168173ffffffffffffffffffffffffffffffffffffffff167f8be0079c531659141344cd1fd0a4f28419497f9722a3daafe3b4186f6b6457e060405160405180910390a35050565b60006040517f3d602d80600a3d3981f3363d3d373d3d3d363d7300000000000000000000000081528260601b60148201527f5af43d82803e903d91602b57fd5bf3000000000000000000000000000000000060288201526037816000f0915050600073ffffffffffffffffffffffffffffffffffffffff168173ffffffffffffffffffffffffffffffffffffffff16141561060a576040517f08c379a000000000000000000000000000000000000000000000000000000000815260040161060190610962565b60405180910390fd5b919050565b600080fd5b600073ffffffffffffffffffffffffffffffffffffffff82169050919050565b600061063f82610614565b9050919050565b61064f81610634565b811461065a57600080fd5b50565b60008135905061066c81610646565b92915050565b6000602082840312156106885761068761060f565b5b60006106968482850161065d565b91505092915050565b6106a881610634565b82525050565b60006020820190506106c3600083018461069f565b92915050565b6000819050919050565b6106dc816106c9565b81146106e757600080fd5b50565b6000813590506106f9816106d3565b92915050565b600061070a82610614565b9050919050565b61071a816106ff565b811461072557600080fd5b50565b60008135905061073781610711565b92915050565b600080600080608085870312156107575761075661060f565b5b6000610765878288016106ea565b9450506020610776878288016106ea565b93505060406107878782880161065d565b925050606061079887828801610728565b91505092959194509250565b600082825260208201905092915050565b7f4f776e61626c653a2063616c6c6572206973206e6f7420746865206f776e6572600082015250565b60006107eb6020836107a4565b91506107f6826107b5565b602082019050919050565b6000602082019050818103600083015261081a816107de565b9050919050565b61082a816106c9565b82525050565b610839816106ff565b82525050565b60006080820190506108546000830187610821565b6108616020830186610821565b61086e604083018561069f565b61087b6060830184610830565b95945050505050565b7f4f776e61626c653a206e6577206f776e657220697320746865207a65726f206160008201527f6464726573730000000000000000000000000000000000000000000000000000602082015250565b60006108e06026836107a4565b91506108eb82610884565b604082019050919050565b6000602082019050818103600083015261090f816108d3565b9050919050565b7f455243313136373a20637265617465206661696c656400000000000000000000600082015250565b600061094c6016836107a4565b915061095782610916565b602082019050919050565b6000602082019050818103600083015261097b8161093f565b905091905056fea2646970667358221220ed5e76de3ce7030468f921f0c39cbe62941eb34fc34c16f28954ca74f9a1812864736f6c63430008090033",
  "linkReferences": {},
  "deployedLinkReferences": {}
}