{
  "_format": "hh-sol-artifact-1",
  "contractName": "Deposit",
  "sourceName": "contracts/Deposit.sol",
  "abi": [
    {
      "inputs": [],
      "name": "IncorrectDeposit",
      "type": "error"
    },
    {
      "inputs": [],
      "name": "InvalidState",
      "type": "error"
    },
    {
      "inputs": [],
      "name": "NotAfterAgreedDate",
      "type": "error"
    },
    {
      "inputs": [],
      "name": "NotOnAgreedDate",
      "type": "error"
    },
    {
      "inputs": [],
      "name": "OnlyBuyer",
      "type": "error"
    },
    {
      "anonymous": false,
      "inputs": [
        {
          "indexed": false,
          "internalType": "uint8",
          "name": "version",
          "type": "uint8"
        }
      ],
      "name": "Initialized",
      "type": "event"
    },
    {
      "anonymous": false,
      "inputs": [
        {
          "indexed": false,
          "internalType": "uint256",
          "name": "_value",
          "type": "uint256"
        }
      ],
      "name": "Number",
      "type": "event"
    },
    {
      "inputs": [],
      "name": "agreedDate",
      "outputs": [
        {
          "internalType": "uint256",
          "name": "",
          "type": "uint256"
        }
      ],
      "stateMutability": "view",
      "type": "function"
    },
    {
      "inputs": [],
      "name": "buyer",
      "outputs": [
        {
          "internalType": "address payable",
          "name": "",
          "type": "address"
        }
      ],
      "stateMutability": "view",
      "type": "function"
    },
    {
      "inputs": [],
      "name": "claimFunds",
      "outputs": [],
      "stateMutability": "nonpayable",
      "type": "function"
    },
    {
      "inputs": [],
      "name": "confirmDeposit",
      "outputs": [],
      "stateMutability": "payable",
      "type": "function"
    },
    {
      "inputs": [],
      "name": "contestItem",
      "outputs": [],
      "stateMutability": "nonpayable",
      "type": "function"
    },
    {
      "inputs": [],
      "name": "contractTokens",
      "outputs": [],
      "stateMutability": "nonpayable",
      "type": "function"
    },
    {
      "inputs": [],
      "name": "depositValue",
      "outputs": [
        {
          "internalType": "uint256",
          "name": "",
          "type": "uint256"
        }
      ],
      "stateMutability": "view",
      "type": "function"
    },
    {
      "inputs": [],
      "name": "getContractValue",
      "outputs": [],
      "stateMutability": "nonpayable",
      "type": "function"
    },
    {
      "inputs": [
        {
          "internalType": "uint256",
          "name": "_depositValue",
          "type": "uint256"
        },
        {
          "internalType": "uint256",
          "name": "_agreedDate",
          "type": "uint256"
        },
        {
          "internalType": "address",
          "name": "_token",
          "type": "address"
        }
      ],
      "name": "initialize",
      "outputs": [],
      "stateMutability": "nonpayable",
      "type": "function"
    },
    {
      "inputs": [],
      "name": "seller",
      "outputs": [
        {
          "internalType": "address payable",
          "name": "",
          "type": "address"
        }
      ],
      "stateMutability": "view",
      "type": "function"
    },
    {
      "inputs": [],
      "name": "state",
      "outputs": [
        {
          "internalType": "enum Deposit.State",
          "name": "",
          "type": "uint8"
        }
      ],
      "stateMutability": "view",
      "type": "function"
    }
  ],
  "bytecode": "0x608060405234801561001057600080fd5b50610f7c806100206000396000f3fe60806040526004361061009c5760003560e01c8063a8d20de511610064578063a8d20de514610141578063ac30777314610158578063b07522261461016f578063b7bbd5671461019a578063c19d93fb146101c5578063dc82697c146101f05761009c565b806308551a53146100a157806325b00885146100cc5780637150d8ae146100d65780637ea1611414610101578063a6ab36f214610118575b600080fd5b3480156100ad57600080fd5b506100b6610207565b6040516100c39190610aff565b60405180910390f35b6100d461022d565b005b3480156100e257600080fd5b506100eb6103be565b6040516100f89190610aff565b60405180910390f35b34801561010d57600080fd5b506101166103e4565b005b34801561012457600080fd5b5061013f600480360381019061013a9190610b93565b6105dd565b005b34801561014d57600080fd5b506101566106fc565b005b34801561016457600080fd5b5061016d6107df565b005b34801561017b57600080fd5b50610184610951565b6040516101919190610bf5565b60405180910390f35b3480156101a657600080fd5b506101af610957565b6040516101bc9190610bf5565b60405180910390f35b3480156101d157600080fd5b506101da61095d565b6040516101e79190610c87565b60405180910390f35b3480156101fc57600080fd5b50610205610970565b005b600260009054906101000a900473ffffffffffffffffffffffffffffffffffffffff1681565b600080600281111561024257610241610c10565b5b600560009054906101000a900460ff16600281111561026457610263610c10565b5b1461029b576040517fbaf3f0f700000000000000000000000000000000000000000000000000000000815260040160405180910390fd5b33600360006101000a81548173ffffffffffffffffffffffffffffffffffffffff021916908373ffffffffffffffffffffffffffffffffffffffff1602179055506001600560006101000a81548160ff0219169083600281111561030257610301610c10565b5b0217905550600060029054906101000a900473ffffffffffffffffffffffffffffffffffffffff1673ffffffffffffffffffffffffffffffffffffffff166323b872dd33306001546040518463ffffffff1660e01b815260040161036893929190610cb1565b602060405180830381600087803b15801561038257600080fd5b505af1158015610396573d6000803e3d6000fd5b505050506040513d601f19601f820116820180604052508101906103ba9190610d20565b5050565b600360009054906101000a900473ffffffffffffffffffffffffffffffffffffffff1681565b600360009054906101000a900473ffffffffffffffffffffffffffffffffffffffff1673ffffffffffffffffffffffffffffffffffffffff163373ffffffffffffffffffffffffffffffffffffffff161461046b576040517f86efbb5500000000000000000000000000000000000000000000000000000000815260040160405180910390fd5b60018060028111156104805761047f610c10565b5b600560009054906101000a900460ff1660028111156104a2576104a1610c10565b5b146104d9576040517fbaf3f0f700000000000000000000000000000000000000000000000000000000815260040160405180910390fd5b6002600560006101000a81548160ff021916908360028111156104ff576104fe610c10565b5b0217905550600060029054906101000a900473ffffffffffffffffffffffffffffffffffffffff1673ffffffffffffffffffffffffffffffffffffffff166323b872dd30600360009054906101000a900473ffffffffffffffffffffffffffffffffffffffff166001546040518463ffffffff1660e01b815260040161058793929190610dac565b602060405180830381600087803b1580156105a157600080fd5b505af11580156105b5573d6000803e3d6000fd5b505050506040513d601f19601f820116820180604052508101906105d99190610d20565b5050565b60006105e960016109ab565b9050801561060d576001600060016101000a81548160ff0219169083151502179055505b33600260006101000a81548173ffffffffffffffffffffffffffffffffffffffff021916908373ffffffffffffffffffffffffffffffffffffffff160217905550836001819055508260048190555081600060026101000a81548173ffffffffffffffffffffffffffffffffffffffff021916908373ffffffffffffffffffffffffffffffffffffffff16021790555080156106f65760008060016101000a81548160ff0219169083151502179055507f7f26b83ff96e1f2b6a682f133852f6798a09c465da95921460cefb384740249860016040516106ed9190610e2b565b60405180910390a15b50505050565b7f6bae605e24bc4cb18abe39d95b9d7fcffa36cf0725b4773ff0f2bc41d4f23cf0600060029054906101000a900473ffffffffffffffffffffffffffffffffffffffff1673ffffffffffffffffffffffffffffffffffffffff166370a08231306040518263ffffffff1660e01b81526004016107789190610e46565b60206040518083038186803b15801561079057600080fd5b505afa1580156107a4573d6000803e3d6000fd5b505050506040513d601f19601f820116820180604052508101906107c89190610e76565b6040516107d59190610bf5565b60405180910390a1565b60018060028111156107f4576107f3610c10565b5b600560009054906101000a900460ff16600281111561081657610815610c10565b5b1461084d576040517fbaf3f0f700000000000000000000000000000000000000000000000000000000815260040160405180910390fd5b6002600560006101000a81548160ff0219169083600281111561087357610872610c10565b5b0217905550600060029054906101000a900473ffffffffffffffffffffffffffffffffffffffff1673ffffffffffffffffffffffffffffffffffffffff166323b872dd30600260009054906101000a900473ffffffffffffffffffffffffffffffffffffffff166001546040518463ffffffff1660e01b81526004016108fb93929190610dac565b602060405180830381600087803b15801561091557600080fd5b505af1158015610929573d6000803e3d6000fd5b505050506040513d601f19601f8201168201806040525081019061094d9190610d20565b5050565b60045481565b60015481565b600560009054906101000a900460ff1681565b7f6bae605e24bc4cb18abe39d95b9d7fcffa36cf0725b4773ff0f2bc41d4f23cf06001546040516109a19190610bf5565b60405180910390a1565b60008060019054906101000a900460ff1615610a225760018260ff161480156109da57506109d830610a9b565b155b610a19576040517f08c379a0000000000000000000000000000000000000000000000000000000008152600401610a1090610f26565b60405180910390fd5b60009050610a96565b8160ff1660008054906101000a900460ff1660ff1610610a77576040517f08c379a0000000000000000000000000000000000000000000000000000000008152600401610a6e90610f26565b60405180910390fd5b816000806101000a81548160ff021916908360ff160217905550600190505b919050565b6000808273ffffffffffffffffffffffffffffffffffffffff163b119050919050565b600073ffffffffffffffffffffffffffffffffffffffff82169050919050565b6000610ae982610abe565b9050919050565b610af981610ade565b82525050565b6000602082019050610b146000830184610af0565b92915050565b600080fd5b6000819050919050565b610b3281610b1f565b8114610b3d57600080fd5b50565b600081359050610b4f81610b29565b92915050565b6000610b6082610abe565b9050919050565b610b7081610b55565b8114610b7b57600080fd5b50565b600081359050610b8d81610b67565b92915050565b600080600060608486031215610bac57610bab610b1a565b5b6000610bba86828701610b40565b9350506020610bcb86828701610b40565b9250506040610bdc86828701610b7e565b9150509250925092565b610bef81610b1f565b82525050565b6000602082019050610c0a6000830184610be6565b92915050565b7f4e487b7100000000000000000000000000000000000000000000000000000000600052602160045260246000fd5b60038110610c5057610c4f610c10565b5b50565b6000819050610c6182610c3f565b919050565b6000610c7182610c53565b9050919050565b610c8181610c66565b82525050565b6000602082019050610c9c6000830184610c78565b92915050565b610cab81610b55565b82525050565b6000606082019050610cc66000830186610ca2565b610cd36020830185610ca2565b610ce06040830184610be6565b949350505050565b60008115159050919050565b610cfd81610ce8565b8114610d0857600080fd5b50565b600081519050610d1a81610cf4565b92915050565b600060208284031215610d3657610d35610b1a565b5b6000610d4484828501610d0b565b91505092915050565b6000819050919050565b6000610d72610d6d610d6884610abe565b610d4d565b610abe565b9050919050565b6000610d8482610d57565b9050919050565b6000610d9682610d79565b9050919050565b610da681610d8b565b82525050565b6000606082019050610dc16000830186610ca2565b610dce6020830185610d9d565b610ddb6040830184610be6565b949350505050565b6000819050919050565b600060ff82169050919050565b6000610e15610e10610e0b84610de3565b610d4d565b610ded565b9050919050565b610e2581610dfa565b82525050565b6000602082019050610e406000830184610e1c565b92915050565b6000602082019050610e5b6000830184610ca2565b92915050565b600081519050610e7081610b29565b92915050565b600060208284031215610e8c57610e8b610b1a565b5b6000610e9a84828501610e61565b91505092915050565b600082825260208201905092915050565b7f496e697469616c697a61626c653a20636f6e747261637420697320616c72656160008201527f647920696e697469616c697a6564000000000000000000000000000000000000602082015250565b6000610f10602e83610ea3565b9150610f1b82610eb4565b604082019050919050565b60006020820190508181036000830152610f3f81610f03565b905091905056fea264697066735822122005487c6e2cd70403124bf392b6c0369d14c8ca94a106476c5476175ae0f5dd4964736f6c63430008090033",
  "linkReferences": {},
  "deployedLinkReferences": {}
}