{
  "_format": "hh-sol-artifact-1",
  "contractName": "DepositFactory",
  "sourceName": "contracts/DepositFactory.sol",
  "abi": [
    {
      "anonymous": false,
      "inputs": [
        {
          "indexed": false,
          "internalType": "address",
          "name": "newDepositAddress",
          "type": "address"
        }
      ],
      "name": "DepositCreated",
      "type": "event"
    },
    {
      "anonymous": false,
      "inputs": [
        {
          "indexed": true,
          "internalType": "address",
          "name": "previousOwner",
          "type": "address"
        },
        {
          "indexed": true,
          "internalType": "address",
          "name": "newOwner",
          "type": "address"
        }
      ],
      "name": "OwnershipTransferred",
      "type": "event"
    },
    {
      "inputs": [],
      "name": "contractAddress",
      "outputs": [
        {
          "internalType": "address",
          "name": "",
          "type": "address"
        }
      ],
      "stateMutability": "view",
      "type": "function"
    },
    {
      "inputs": [
        {
          "internalType": "uint256",
          "name": "_depositValue",
          "type": "uint256"
        },
        {
          "internalType": "uint256",
          "name": "_agreedDate",
          "type": "uint256"
        },
        {
          "internalType": "address",
          "name": "_token",
          "type": "address"
        }
      ],
      "name": "createDeposit",
      "outputs": [],
      "stateMutability": "nonpayable",
      "type": "function"
    },
    {
      "inputs": [],
      "name": "owner",
      "outputs": [
        {
          "internalType": "address",
          "name": "",
          "type": "address"
        }
      ],
      "stateMutability": "view",
      "type": "function"
    },
    {
      "inputs": [],
      "name": "renounceOwnership",
      "outputs": [],
      "stateMutability": "nonpayable",
      "type": "function"
    },
    {
      "inputs": [
        {
          "internalType": "address",
          "name": "_contractAddress",
          "type": "address"
        }
      ],
      "name": "setContractAddress",
      "outputs": [],
      "stateMutability": "nonpayable",
      "type": "function"
    },
    {
      "inputs": [
        {
          "internalType": "address",
          "name": "newOwner",
          "type": "address"
        }
      ],
      "name": "transferOwnership",
      "outputs": [],
      "stateMutability": "nonpayable",
      "type": "function"
    }
  ],
  "bytecode": "0x608060405234801561001057600080fd5b5061002d61002261003260201b60201c565b61003a60201b60201c565b6100fe565b600033905090565b60008060009054906101000a900473ffffffffffffffffffffffffffffffffffffffff169050816000806101000a81548173ffffffffffffffffffffffffffffffffffffffff021916908373ffffffffffffffffffffffffffffffffffffffff1602179055508173ffffffffffffffffffffffffffffffffffffffff168173ffffffffffffffffffffffffffffffffffffffff167f8be0079c531659141344cd1fd0a4f28419497f9722a3daafe3b4186f6b6457e060405160405180910390a35050565b6109468061010d6000396000f3fe608060405234801561001057600080fd5b50600436106100625760003560e01c8063477bddaa14610067578063715018a6146100835780638da5cb5b1461008d578063ef1bfe75146100ab578063f2fde38b146100c7578063f6b4dfb4146100e3575b600080fd5b610081600480360381019061007c919061066f565b610101565b005b61008b6101c1565b005b610095610249565b6040516100a291906106ab565b60405180910390f35b6100c560048036038101906100c091906106fc565b610272565b005b6100e160048036038101906100dc919061066f565b61034d565b005b6100eb610445565b6040516100f891906106ab565b60405180910390f35b61010961046b565b73ffffffffffffffffffffffffffffffffffffffff16610127610249565b73ffffffffffffffffffffffffffffffffffffffff161461017d576040517f08c379a0000000000000000000000000000000000000000000000000000000008152600401610174906107ac565b60405180910390fd5b80600160006101000a81548173ffffffffffffffffffffffffffffffffffffffff021916908373ffffffffffffffffffffffffffffffffffffffff16021790555050565b6101c961046b565b73ffffffffffffffffffffffffffffffffffffffff166101e7610249565b73ffffffffffffffffffffffffffffffffffffffff161461023d576040517f08c379a0000000000000000000000000000000000000000000000000000000008152600401610234906107ac565b60405180910390fd5b6102476000610473565b565b60008060009054906101000a900473ffffffffffffffffffffffffffffffffffffffff16905090565b600061029f600160009054906101000a900473ffffffffffffffffffffffffffffffffffffffff16610537565b90508073ffffffffffffffffffffffffffffffffffffffff1663a6ab36f28585856040518463ffffffff1660e01b81526004016102de939291906107db565b600060405180830381600087803b1580156102f857600080fd5b505af115801561030c573d6000803e3d6000fd5b505050507ff62db4d5e4c2d5a957e5105e48d43f2c6db77666090ec34af81656a505cdb39f8160405161033f91906106ab565b60405180910390a150505050565b61035561046b565b73ffffffffffffffffffffffffffffffffffffffff16610373610249565b73ffffffffffffffffffffffffffffffffffffffff16146103c9576040517f08c379a00000000000000000000000000000000000000000000000000000000081526004016103c0906107ac565b60405180910390fd5b600073ffffffffffffffffffffffffffffffffffffffff168173ffffffffffffffffffffffffffffffffffffffff161415610439576040517f08c379a000000000000000000000000000000000000000000000000000000000815260040161043090610884565b60405180910390fd5b61044281610473565b50565b600160009054906101000a900473ffffffffffffffffffffffffffffffffffffffff1681565b600033905090565b60008060009054906101000a900473ffffffffffffffffffffffffffffffffffffffff169050816000806101000a81548173ffffffffffffffffffffffffffffffffffffffff021916908373ffffffffffffffffffffffffffffffffffffffff1602179055508173ffffffffffffffffffffffffffffffffffffffff168173ffffffffffffffffffffffffffffffffffffffff167f8be0079c531659141344cd1fd0a4f28419497f9722a3daafe3b4186f6b6457e060405160405180910390a35050565b60006040517f3d602d80600a3d3981f3363d3d373d3d3d363d7300000000000000000000000081528260601b60148201527f5af43d82803e903d91602b57fd5bf3000000000000000000000000000000000060288201526037816000f0915050600073ffffffffffffffffffffffffffffffffffffffff168173ffffffffffffffffffffffffffffffffffffffff161415610607576040517f08c379a00000000000000000000000000000000000000000000000000000000081526004016105fe906108f0565b60405180910390fd5b919050565b600080fd5b600073ffffffffffffffffffffffffffffffffffffffff82169050919050565b600061063c82610611565b9050919050565b61064c81610631565b811461065757600080fd5b50565b60008135905061066981610643565b92915050565b6000602082840312156106855761068461060c565b5b60006106938482850161065a565b91505092915050565b6106a581610631565b82525050565b60006020820190506106c0600083018461069c565b92915050565b6000819050919050565b6106d9816106c6565b81146106e457600080fd5b50565b6000813590506106f6816106d0565b92915050565b6000806000606084860312156107155761071461060c565b5b6000610723868287016106e7565b9350506020610734868287016106e7565b92505060406107458682870161065a565b9150509250925092565b600082825260208201905092915050565b7f4f776e61626c653a2063616c6c6572206973206e6f7420746865206f776e6572600082015250565b600061079660208361074f565b91506107a182610760565b602082019050919050565b600060208201905081810360008301526107c581610789565b9050919050565b6107d5816106c6565b82525050565b60006060820190506107f060008301866107cc565b6107fd60208301856107cc565b61080a604083018461069c565b949350505050565b7f4f776e61626c653a206e6577206f776e657220697320746865207a65726f206160008201527f6464726573730000000000000000000000000000000000000000000000000000602082015250565b600061086e60268361074f565b915061087982610812565b604082019050919050565b6000602082019050818103600083015261089d81610861565b9050919050565b7f455243313136373a20637265617465206661696c656400000000000000000000600082015250565b60006108da60168361074f565b91506108e5826108a4565b602082019050919050565b60006020820190508181036000830152610909816108cd565b905091905056fea2646970667358221220ba2fe5166d9158cad89ab4bc66a90f36f573c0ffd61d1ad385d55f8746b5178764736f6c63430008090033",
  "linkReferences": {},
  "deployedLinkReferences": {}
}